S01800006275696C642F6D6963617A2F6D61696E2E73726563E5
S11300000C945E010C94E2060C94EC060C94F60637
S11300100C9400070C940A070C9414070C94B00C6D
S11300200C941E070C947D010C947D010C94071F05
S11300300C9478120C94AC060C94C2060C94900B9D
S11300400C949B060C94AC140C94E8080C947D015D
S11300500C9464090C947D010C947D010C947D0135
S11300600C94B7060C94B70A0C94960A0C94A10A43
S11300700C94AC0A0C94CA0A0C94790A0C947D0171
S11300800C948B0A0C947D010C947D013D15CA15CA
S1130090D01521163C1642167B16361759176D17C4
S11300A08E1AC11A191B3415651B731B581C621C4C
S11300B0661C691C711C00002110422063308440BE
S11300C0A550C660E770088129914AA16BB18CC123
S11300D0ADD1CEE1EFF13112100273325222B5529A
S11300E09442F772D662399318837BB35AA3BDD373
S11300F09CC3FFF3DEE36224433420040114E6646A
S1130100C774A44485546AA54BB528850995EEE5C2
S1130110CFF5ACC58DD55336722611163006D77679
S1130120F6669556B4465BB77AA719973887DFF712
S1130130FEE79DD7BCC7C448E5588668A778400841
S1130140611802282338CCC9EDD98EE9AFF9488962
S113015069990AA92BB9F55AD44AB77A966A711AD9
S1130160500A333A122AFDDBDCCBBFFB9EEB799BB2
S1130170588B3BBB1AABA66C877CE44CC55C222C29
S1130180033C600C411CAEED8FFDECCDCDDD2AAD02
S11301900BBD688D499D977EB66ED55EF44E133EB9
S11301A0322E511E700E9FFFBEEFDDDFFCCF1BBF52
S11301B03AAF599F788F8891A981CAB1EBA10CD12C
S11301C02DC14EF16FE18010A100C230E320045034
S11301D0254046706760B9839893FBA3DAB33DC3A7
S11301E01CD37FE35EF3B1029012F322D232354284
S11301F0145277625672EAB5CBA5A89589856EF537
S11302004FE52CD50DC5E234C324A01481046674D3
S1130210476424540544DBA7FAB79987B8975FE786
S11302207EF71DC73CD7D326F2369106B016576623
S11302307676154634564CD96DC90EF92FE9C8990E
S1130240E9898AB9ABA94458654806782768C01873
S1130250E1088238A3287DCB5CDB3FEB1EFBF98BE6
S1130260D89BBBAB9ABB754A545A376A167AF10AC3
S1130270D01AB32A923A2EFD0FED6CDD4DCDAABDF6
S11302808BADE89DC98D267C076C645C454CA23C13
S1130290832CE01CC10C1FEF3EFF5DCF7CDF9BAFC6
S11302A0BABFD98FF89F176E367E554E745E932E63
S11302B0B23ED10EF01E00081C18141011241FBEEB
S11302C0CFEFD0E1DEBFCDBF15E0A0E0B1E0EAE7BB
S11302D0FDE400E00BBF02C007900D92AE31B10700
S11302E0D9F717E0AEE1B5E001C01D92AE39B10710
S11302F0E1F70E94C11C0C94BC260C9400008FB73B
S1130300F894992708958FBF0895282F9FB7F894DC
S1130310E82FFF27E053FA4F80818F3F81F4E0916B
S11303208E07E21771F40BC020937C0704C0FF27EB
S1130330E053FA4F208320938E0720E007C025E086
S113034005C080917C078F3F91F7EECF892F9927C5
S11303508FBF822F99270895569857981092CA06EE
S11303601092F405539A549A579A80E090E00895B5
S11303708091CB068A3021F48091F105843021F0FC
S113038081E080932C05089581E10E9485011092FB
S11303902C0508952FB7F89433278CB95E9A2FBF94
S11303A00895FC016115710519F481E090E0089548
S11303B08091110690911206892B19F085E090E046
S11303C008957093210760932007F0931206E09339
S11303D011061092F3051092F20581E08093F40562
S11303E05E9A569A808121E030E03093F3052093A1
S11303F0F2050E94CA0180E090E008958FB7F89456
S1130400992720913D052E7F20933D052EE72093CB
S1130410E8058FBF61E070E088EE95E00E94D101AD
S1130420992708951F931FB7F89480918A0788230A
S113043041F48FE00E948501882319F481E08093C0
S11304408A07812F99278FBF1F910895FC0182810C
S11304509927582F442781819927482B592BCA0162
S1130460892F99278695869583709070823091059F
S113047059F08330910559F0892B19F420E030E0CC
S113048008C02CE93FEF05C022E030E002C028E0BC
S113049030E0CA0184E0989F812D9927112482308D
S11304A0910559F08330910559F0892B19F480E0B6
S11304B090E008C08CE99FEF05C082E090E002C0A4
S11304C088E090E0280F391F2A5F3F4FCF01820F49
S11304D0931F0895282F9FB7F894662349F0E82FB7
S11304E0FF27EC52F94F8081882311F021E006C0E8
S11304F0E22FFF27EC52F94F608320E0892F9927E0
S11305008FBF822F99270895E82F8FB7F894282F4B
S1130510332790E0FF27EC52F94F8081861709F4C6
S113052091E02FBF892F99270895882311F06E9A9F
S113053008956E980895882311F06F9A08956F981E
S1130540089580E00E949502BA9ABB98B99AB89A25
S11305506C9A80E00E949B026B986A9881E00E94EA
S11305609502709A8DB18C7F8DB908950F931F9366
S1130570CF93DF93182F8FB7F894C82FDD270C2F54
S113058061E080E00E946A02882321F0CFBF85E009
S113059090E024C08091FA048823A1F48091250579
S11305A0823081F409C082E0809325051092FA0418
S11305B00E94A102B89AC0981093F70480E00FBF7C
S11305C099270CC080912505882369F38FB7F89487
S11305D099271092D4068FBF81E0F1CFDF91CF919C
S11305E01F910F9108951F93182F81E00E94950287
S11305F01FB9779BFECF8FB199271F9108958F92D2
S11306009F92AF92BF92CF92DF92EF92FF920F939D
S11306101F93CF93DF938FB7F8949927C0908607E1
S1130620D09087078090C8069090C906C09128068C
S1130630D09129062091410530914205EAE0AE2E81
S1130640B12CAC0EBD1E2A153B0508F459018FBF11
S11306507401EC0EFD1E86010C0F1D1F14C0C11485
S1130660D10419F0F801808101C080E00E94F302F6
S11306708114910411F0F701808321960894E11C00
S1130680F11C0F5F1F4FC5010197C817D90738F335
S113069081E00E949B029FB7F894C114D10431F009
S11306A0CC0EDD1EF60180818FB901C01FB8D09336
S11306B02906C0932806892F99278FBF80E090E0F0
S11306C0DF91CF911F910F91FF90EF90DF90CF902A
S11306D0BF90AF909F908F9008952FB7F8943327D1
S11306E05093420540934105909387078093860772
S11306F07093C9066093C8061092290610922806C2
S11307002FBF452B29F08FB10E94FF02992708952E
S113071087E00E94850180E090E008958FB7F89407
S113072099271092D6068FBF08957FB7F89462B7C1
S11307302091450530914605409147055091480563
S113074006B601FE0FC081B792B7280F311D411DB7
S1130750511D2F5F3F4F4F4F5F4F290F311D411DDB
S1130760511D04C0260F311D411D511D872F99278E
S11307708FBFCA01B90108952F923F924F925F92A1
S11307806F927F928F929F92AF92BF92CF92DF929D
S1130790EF92FF920F931F93CF93DF93CDB7DEB702
S11307A029970FB6F894DEBF0FBECDBF6FB769832C
S11307B0F8942090FB053090FC054090FD05509086
S11307C0FE05662477248824BEE4AB2EA3E8BA2E63
S11307D0CC24DD24EE24FF2400E010E0222D332D70
S11307E0442D552D662D772D882D90E00E94A5204F
S11307F02A833B834C835D836E837F8388879987B9
S1130800822E932EA42EB52E2401350100E20E94DF
S1130810A321A22EB32EC42ED52EA3019201569548
S11308204795379527952A0D3B1D4C1D5D1D57FF98
S113083005C05F772F5F3F4F4F4F5F4F2093FB05FE
S11308403093FC054093FD055093FE05E9818E2FFE
S113085099278FBFCA01B90129960FB6F894DEBF54
S11308600FBECDBFDF91CF911F910F91FF90EF90FD
S1130870DF90CF90BF90AF909F908F907F906F90BC
S11308805F904F903F902F900895DF92EF92FF92E8
S11308900F931F93D82E7A018B010E94950329E0B0
S11308A0D29EF0011124ED5CF94F60837183828341
S11308B09383E482F582068317838085836080872F
S11308C08BE00E9485011F910F91FF90EF90DF90C4
S11308D008959C018091440681FF03C080E090E06C
S11308E00895A9EDB6E0FB0184E301900D928150D7
S11308F0E1F73093CD052093CC054CE251E060E064
S113090070E081E00E94450481E090E00895DF9268
S1130910EF92FF920F931F938FB7F894282F3327EA
S1130920D22E91B782B746B7981711F041FF02C093
S11309302FBF6AC080911F068823E1F10E949503AE
S1130940E090D006F090D1060091D2061091D30623
S113095020915705309158054091590550915A05F9
S11309606E197F09800B910B621773078407950733
S113097020F010921F0671E01EC02E0D3F1D401F77
S1130980511F8091450590914605A0914705B0916E
S11309904805281B390B4A0B5B0B273E31054105E3
S11309A0510540F4822F223010F070E005C070E051
S11309B082E002C070E086EE682F615000B601FC50
S11309C0FDCF82B7681709F46F5F20914505309118
S11309D046054091470550914805DA01C901019641
S11309E0A11DB11D860F911DA11DB11D8217930775
S11309F0A407B50710F4622F609561BFDFBE7723AB
S1130A0019F08AE00E9485011F910F91FF90EF90E9
S1130A10DF900895AFB7F894BB27E1E0E0931F0699
S1130A206093D0067093D1068093D2069093D30638
S1130A3020935705309358054093590550935A0510
S1130A40AFBF0E948704089580E8809397051092B1
S1130A50F0051092800710927B071092EC05089520
S1130A60CF93DF93FC0115A6DC019E96ED011B825A
S1130A701A82198280E886A7DF91CF9108958FB7F3
S1130A80F89460912C0670912D062CB53DB506B6F0
S1130A9002FE04C06F5F7F4F2CB53DB599278FBF11
S1130AA088279927CB017727662744275527622B68
S1130AB0732B842B952B0895EF92FF920F931F9322
S1130AC00E943F057B018C012091090630910A06A2
S1130AD040910B0650910C068091030690910406F8
S1130AE0A0910506B0910606820F931FA41FB51F9F
S1130AF0E216F3060407150730F082179307A407DC
S1130B00B50758F005C082179307A407B507E0F5A9
S1130B10E816F9060A071B07B8F59C01AD012E1962
S1130B203F09400B510B213060E8360760E046076F
S1130B3060E0560768F180E090E8A0E0B0E0E80EDD
S1130B40F91E0A1F1B1FE0920906F0920A06009381
S1130B500B0610930C0680E090E8AFEFBFEFE80EB1
S1130B60F91E0A1F1B1F205030484040504020935C
S1130B70030630930406409305065093060620E0CE
S1130B8030E840E050E014C020E030E040E050E0C5
S1130B908093090690930A06A0930B06B0930C0663
S1130BA0109203061092040610920506109206068F
S1130BB0A901B7012CB53DB5C9018E199F0903964A
S1130BC08417950720F0B9016D5F7F4F02C0640F51
S1130BD0751F6115710511F461E070E0615070409A
S1130BE07BBD6ABD80E186BF87B7806187BF1F91E7
S1130BF00F91FF90EF9008950F931F930FB7F89400
S1130C0011276093090670930A0680930B0690934C
S1130C100C06209303063093040640930506509374
S1130C2006060E945C050FBF1F910F910895CF9295
S1130C30DF92EF92FF920F931F93CF93DF938C0178
S1130C40F62E6A01E22E8FB7F894C82FDD2760E0F4
S1130C5080E00E948402882321F0CFBF80E090E0EE
S1130C601EC0CFBF0F0D111D802F80680E94F3029C
S1130C70F82E16950795802F807C0E94F3020E2D86
S1130C800AC0EE2DFF27E01BF109EC0DFD1D80814C
S1130C900E94F30201500023A1F78F2D9927DF91C1
S1130CA0CF911F910F91FF90EF90DF90CF90089517
S1130CB097B79F7D97BF90E296BF882319F08EB5B2
S1130CC0806402C08EB58F7B8EBD87B7806287BF7C
S1130CD080E090E00895AF92BF92CF92DF92EF92BE
S1130CE0FF920F931F93CF93DF93CDB7DEB728976F
S1130CF00FB6F894DEBF0FBECDBF20E070E0E091E8
S1130D00F504F091F60432E14DE65CE46FE4809181
S1130D10F6049E2F28960FB6F894DEBF0FBECDBF03
S1130D20DF91CF911F910F91FF90EF90DF90CF90C3
S1130D30BF90AF9008951F920F920FB60F92112497
S1130D408F9383B783BF00B600FCFDCF8F910F90C4
S1130D500FBE0F901F90189578941F920F920FB6A4
S1130D600F9211240F900FBE0F901F901895789436
S1130D701F920F920FB60F9211240F900FBE0F9077
S1130D801F90189578941F920F920FB60F9211240A
S1130D902F933F938F939F932FB7F894332780918A
S1130DA02C0690912D06019690932D0680932C0687
S1130DB02FBF9F918F913F912F910F900FBE0F9056
S1130DC01F9018951F920F920FB60F9211240F9037
S1130DD00FBE0F901F9018951F920F920FB60F928F
S1130DE011240F900FBE0F901F9018951F920F9211
S1130DF00FB60F9211240F900FBE0F901F901895ED
S1130E001F920F920FB60F9211240F900FBE0F90E6
S1130E101F9018951F920F920FB60F9211240F90E6
S1130E200FBE0F901F9018951F920F920FB60F923E
S1130E3011240F900FBE0F901F9018951F920F92C0
S1130E400FB60F9211240F900FBE0F901F9018959C
S1130E5080E090E00895E6EBF0E06927660FF11D6D
S1130E60E60FF11DC895982F802D3196C8959025D1
S1130E700895982F80913805882389F5992379F569
S1130E8031E0309338058091020580933905209133
S1130E902D05822F81708093CE0580910705909156
S1130EA0080590933B0580933A0580912E05809325
S1130EB03C0532273170267EE32FFF27EE0FFF1FFC
S1130EC0ED5FFA4F80819181909308058093070527
S1130ED0232B20932D0584E10E94850108958091A0
S1130EE02D0580FF02C08B7F01C08D7F80932D056F
S1130EF008950F931F93082F162F8091F1058130C9
S1130F00D9F0813038F0823009F44AC0833009F0D6
S1130F1028C159C0002309F458C110921A0710922D
S1130F2019071092CE06109222071092F50510921E
S1130F302F0610922E0639C1002309F046C1809174
S1130F402E0690912F060E942B0790932F068093D4
S1130F502E0682E08093F10510932207143409F0E1
S1130F6000C125C18695869503C080912D0586957F
S1130F70817009F0F6C080912D05992311F08460E9
S1130F8001C0826080932D0580912D05877E886045
S1130F9080932D0510922E058FEF8093020515C1C5
S1130FA0002309F0DEC06093F50580912E06909130
S1130FB02F060E942B0790932F0680932E0683E022
S1130FC08093F10502C18091CE068F3F09F4C9C018
S1130FD0002309F461C0823008F4C3C0E09119070A
S1130FE0EE2309F4EBC04E2F4150E42FFF27E75EB8
S1130FF0F84F82819927382F2227442311F4E2E005
S113100002C0E42FE150FF27E75EF84F8281992761
S1131010282B392B80912E0690912F0628173907FB
S113102009F09FC080E00E9439073091F505809156
S1131030200620912106982F9F5F963008F090E0BB
S1131040921771F0E82FFF27E05EF94F32838F5F2C
S113105080932006863010F0109220060E9412021F
S113106010921A071092190794E09093F1051092C8
S1131070CE06109222071092F50510922F061092B8
S11310802E0680913D058D7F80933D0580912C0532
S1131090882309F49AC084C0823008F44EC0E091D9
S11310A01A07FF27E75EF84F8281482F5527342F10
S11310B020912D05822F8695869586958370992794
S11310C08130910519F00297F9F40EC0277E206152
S11310D020932D05442311F485E001C080E0809322
S11310E02E053093020510C080912E05843360F4E0
S11310F0E0910705F0910805E80FF11D4083809108
S11311002E058F5F80932E0580911A07E82FFF2705
S1131110E75EF84F62818F5F80931A07833010F087
S113112010921A07772780912E0690912F060E941D
S11311302B0790932F0680932E0680911907E82F92
S1131140FF27E75EF84F12838F5F80931907833080
S113115010F0109219078091CE068F5F8093CE060F
S113116034C010921A071092190714E01093F10575
S11311701092CE06109222071092F50510922F06B7
S113118010922E0680913D058D7F80933D0581E070
S11311900E94390780912C05882329F01093F105CA
S11311A00E94B80112C0002381F081E009CF809130
S11311B02D05982F917080FDD5CED7CE80911D0737
S11311C09927382F222742E01CCF1F910F910895B1
S11311D01F920F920FB60F9211242F933F934F93A8
S11311E05F936F937F938F939F93AF93BF93EF938B
S11311F0FF935F9B3DC06CB1E0913006F0913106E6
S11312003097F9F08091880790918907E80FF91FCA
S113121060830196909389078093880720919207B1
S1131220309193078217930718F1109231061092A8
S113123030068091CA068330D9F057981092CA06B6
S113124017C06E3719F460E081E010C080913D054D
S11312506D3721F4826080933D050AC081FF05C08B
S11312608D7F80933D0580E2682780E00E947907A6
S1131270FF91EF91BF91AF919F918F917F916F916A
S11312805F914F913F912F910F900FBE0F901F9040
S11312901895982F8D57823068F480913D058160B0
S11312A080933D0580E289278093CD068DE7809366
S11312B0E80502C09093E80561E070E088EE95E0EF
S11312C00E94D1019927089578941F920F920FB626
S11312D00F921124FF920F931F932F933F934F93D9
S11312E05F936F937F938F939F93AF93BF93CF93AA
S11312F0DF93EF93FF932091F2053091F3058091F2
S11313002007909121072817390780F4E0911106EE
S1131310F0911206E20FF31F80812F5F3F4F30934D
S1131320F3052093F2050E94CA01CDC01092120663
S1131330109211061092F4055698FFB6F894809115
S11313403D0580FF0EC08E7F80933D058091CD06C4
S11313508093E80561E070E088EE95E00E94D10199
S1131360AFC08091CB06843009F48CC0853040F442
S1131370823021F18330B8F5813009F09CC00DC072
S1131380863009F48DC0863008F483C0873009F4B0
S11313908EC0883009F08FC091C0809108060E94E9
S11313A04909082F83E08093CB0660910806809159
S11313B09007909191070E942B0710C080917F079E
S11313C00E944909082F83E08093CB0660917F0730
S11313D080919007909191070E942B079093910719
S11313E08093900766C0E0913206FF27EE0FFF1F3F
S11313F0E85EF94F80810E944909082F1091320656
S1131400C12FDD27FE01EE0FFF1FE85EF94F60815B
S113141080919007909191070E942B0790939107D8
S113142080939007209102062F5F209302061130CB
S113143039F580913405E0912F05F0913005E80FDE
S1131440F11DE0818F5F80933405909133059817E7
S113145030F482E08093190640E050E002C04E2F41
S11314605527DE01AA0FBB1FFD01E95EF94F8081FC
S1131470823031F02F3F21F0A85EB94F4C9319C050
S113148084E012C0809190070E944909082F85E0EA
S11314900BC0809191070E944909082F86E004C07F
S11314A00E94FE01082F87E08093CB0602C088E0EB
S11314B003C0002329F089E08093CB060E94120226
S11314C08F2D99278FBFFF91EF91DF91CF91BF911E
S11314D0AF919F918F917F916F915F914F913F91C8
S11314E02F911F910F91FF900F900FBE0F901F909F
S11314F018951F920F920FB60F9211248F9380911B
S11315009B0087FF02C080919C008F910F900FBEBB
S11315100F901F90189578941F920F920FB60F9208
S113152011240F900FBE0F901F90189578941F925E
S11315300F920FB60F9211240F900FBE0F901F90B1
S1131540189578941F920F920FB60F9211240F9052
S11315500FBE0F901F90189578941F920F920FB69C
S11315600F9211240F900FBE0F901F90189578942E
S11315701F920F920FB60F9211248F939F93809115
S11315808000909181009F918F910F900FBE0F90DA
S11315901F90189578941F920F920FB60F921124F2
S11315A02F933F938F939F932FB7F8943327809172
S11315B0000690910106019690930106809300061F
S11315C02FBF9F918F913F912F910F900FBE0F903E
S11315D01F901895CF93DF93982F8091F40588235B
S11315E019F0CFEFDFEF09C0C92FDD27C7FDD09574
S11315F08C2F0E94CA015E9BFECFCE01DF91CF915A
S11316000895895D964029F4662319F410924405DF
S1131610089580E091E00E94F8230895CF93DF932A
S1131620CDB7DEB72C970FB6F894DEBF0FBECDBF93
S11316308FB7F894282FAE014F5F5F4FDA01EEE0C9
S1131640F7E088E001900D928150E1F78091F60572
S11316509091F7058987892F99278A8780910D06AC
S113166090910E068B87892F99278C872FBF2CE0AA
S113167060E080E691E00E9417062C960FB6F8947D
S1131680DEBF0FBECDBFDF91CF910895EF92FF92E1
S11316900F931F93CF93DF93CDB7DEB726970FB683
S11316A0F894DEBF0FBECDBF7C0129833A834B8300
S11316B05C836D837E838AE090E00E94D122DC010A
S11316C0AC019E012F5F3F4F86E0F90101909F011D
S11316D0FA010192AF018150C1F7FD01178306831E
S11316E011861086F701208131812115310521F4FD
S11316F0B183A08308C09C01F9018085918500977E
S1131700D1F7B187A08726960FB6F894DEBF0FBE37
S1131710CDBFDF91CF911F910F91FF90EF9008956E
S11317201F920F920FB60F9211242F933F934F9352
S11317305F936F937F938F939F93AF93BF93EF9335
S1131740FF9383B783BF00B600FCFDCF81B7992711
S11317500196AA27BB272091450530914605409163
S1131760470550914805280F391F4A1F5B1F2093D6
S113177045053093460540934705509348057894B2
S11317800E948704FF91EF91BF91AF919F918F9138
S11317907F916F915F914F913F912F910F900FBE69
S11317A00F901F9018950F931F93182F0FB7F8944D
S11317B061E080E00E946A02882371F51093F704C7
S11317C08091FA048823A9F580912505823089F552
S11317D086E00CC00E94A10280912505882349F46B
S11317E081E0809325051092ED0588E00E94850133
S11317F02AC0809107068F3F31F5E091F904EE236A
S113180011F11CC01092F80404C0FF27E95FF94FDE
S113181010821092F90417C081E090E002C0880F92
S1131820991F1A95E2F720912405282B209324056B
S11318300AC0809125058823E1F6CCCF8091F80475
S11318408F3F19F7DFCF802F99278FBF80E090E07B
S11318501F910F9108951F9383E00E94B602992768
S1131860182F882319F083E00E94D30B812F992726
S11318701F9108951F93CF93DF93182F8FB7F89478
S1131880C82FDD2760E080E00E948402882321F0D5
S1131890CFBF80E090E005C0CFBF812F0E94F3024C
S11318A09927DF91CF911F910895EF92FF920F93A3
S11318B01F93CF93DF93182F7B01042F8FB7F894D6
S11318C0C82FDD2760E080E00E948402882321F095
S11318D0CFBF80E090E014C0CFBF1064812F992760
S11318E090931406809313060E94F302182F402F3E
S11318F05527B70180E090E00E946D03812F99275E
S1131900DF91CF911F910F91FF90EF900895C098B0
S113191060913E0570913F0541E08FE30E94550CB4
S1131920089582E090E09093E6058093E50581E0D8
S11319308093F00520E030E08091F704843011F4C6
S113194021E030E0232B29F484E00E94B6028823AE
S113195019F40E94870C089584E00E94D30B089523
S11319601F920F920FB60F9211242F933F934F9310
S11319705F936F937F938F939F93AF93BF93EF93F3
S1131980FF938091E5059091E605019749F482E083
S113199090E09093E6058093E5050E94910C05C0C4
S11319A08091EC058F5F8093EC05FF91EF91BF91DF
S11319B0AF919F918F917F916F915F914F913F91E3
S11319C02F910F900FBE0F901F9018951F93809129
S11319D02405882309F04BC01091F7041F3F09F038
S11319E046C060E00E948402882309F440C081E07C
S11319F0809317078091CF058823E1F11092170790
S1131A0085E090E045C0923069F5C09A8091F80471
S1131A1020E030E08F3F11F421E030E0232BE9F4A3
S1131A201093FA048F3F19F42FEF30E00DC0282FE4
S1131A303327F901E95FF94F80818093F8048F3FE0
S1131A4011F41093F90410832093ED0581E0809341
S1131A50250588E00E94850105C01093FA041092C0
S1131A60250511C080912505882369F00FC081E008
S1131A7090E00EC08091FA0490912505882319F214
S1131A80923021F0EFCF80E00E94950280E090E058
S1131A901F9108951F93CF93DF939FB7F894C92F95
S1131AA0DD271C2F9091F704981721F0CFBF81E018
S1131AB090E03AC08FEF8093F704309124053323EC
S1131AC0F1F48FB7F89499271092D4068FBF0E942F
S1131AD0E60CCFBF11C02093F70481E090E002C070
S1131AE0880F991F4A95E2F780953823309324058F
S1131AF086E00E9485011FBF80E090E015C080E071
S1131B0065E0E32FFF270E942622292F492F55271E
S1131B10CF01042E02C0959587950A94E2F780FDC3
S1131B20DACF822F8F5FEFCFDF91CF911F9108958E
S1131B301F93CF93DF938FB7F894C82FDD271C2F03
S1131B408091E5059091E605892B29F484E00E94B3
S1131B504A0DCFBF1EC01092F0058091EC0588237A
S1131B6011F0B79904C00E9908C0882319F0815068
S1131B708093EC050E94910C0BC081E090E090935F
S1131B80E6058093E5051092EC0584E00E944A0D79
S1131B901FBFDF91CF911F9108950E942405C09A21
S1131BA0C09888E00E943A0C88E00E943A0CC09ADF
S1131BB084E00E944A0D0E94980D0895FF920F93AD
S1131BC01F93CF93DF93F82E8B018FB7F894C82F10
S1131BD0DD2760E080E00E948402882321F0CFBFEB
S1131BE080E090E00CC0CFBF8F2D0E94F302812FC4
S1131BF099270E94F302802F0E94F3029927DF9114
S1131C00CF911F910F91FF9008951F931FB7F894E0
S1131C108091EB05882319F460E070E009C060E06E
S1131C2080918507882309F461E081E0682777279C
S1131C308091F805882319F480E090E00AC090E0D0
S1131C4080910D07882309F491E081E09827892F7A
S1131C509927762F6627770F770F770FE4E0880FA1
S1131C60991FEA95E1F7826E9262682B792B81E1E4
S1131C700E94DE0D812F99278FBF1F9108958FB782
S1131C80F8949927609116078FBF85E0689FB0018B
S1131C901124625D7E4F706488E10E94DE0D089518
S1131CA0EF92FF921F93CF93DF93E090F905F090AA
S1131CB0FA05F70182A59927182F882309F41FE153
S1131CC0C0988091EA05811749F0612F77276F71D9
S1131CD07070606E706885E10E94DE0D1093EA05F5
S1131CE0F70110818FB7F894C82FDD2760E080E0FA
S1131CF00E948402882311F0CFBF12C0CFBF8EE3AD
S1131D0090E090931406809313068EE30E94F302EE
S1131D101150412F552760E070E0C7010E946D0308
S1131D20DF91CF911F91FF90EF9008950F931F9330
S1131D30CF93DF93EC010FB7F89411270E9426028A
S1131D40FC018FE380830FBF1092830710928207F8
S1131D5061E082E00E946A02882319F085E090E045
S1131D6072C0809118078F5F8093180781508B830E
S1131D708FB7F894082F112762E081E00E94840253
S1131D80882329F40FBF0E948E0381E05BC08FB7C4
S1131D90F894992724E02093D5068FBFD0931E068C
S1131DA0C0931D060FBFFE013196818129819927B9
S1131DB0982F88273327822B932B80729C7C8983CE
S1131DC0892F992781832981982F88273327216494
S1131DD0822B932B8983892F992781831CA618A68C
S1131DE019A619AA18AA1FA680E88EA761E0609315
S1131DF0D80640911D0650911E068FB7F894282FDF
S1131E00332780912605909127058830910511F09C
S1131E10019711F02FBF15C082E090E09093270541
S1131E208093260560938F075093FA054093F90534
S1131E30109243052FBF0E942B0C882311F40E949B
S1131E40500E80E09927DF91CF911F910F91089553
S1131E50CF93DF93DA01422F2D3118F082E090E026
S1131E605EC0ED018B876E83872F99278F832FB7F1
S1131E70F89433278091F6059091F7052FBFFD0163
S1131E808483892F992785832FB7F89433278091EA
S1131E90FB049091FC042FBF8887892F9927898799
S1131EA03196818129819927982F882733272064A7
S1131EB03868822B932B8983892F99278183435FE9
S1131EC04C934D508091FE04882359F01092FE04E7
S1131ED0642FCD010E94960E9927282F8823A9F4F8
S1131EE017C0842F992790931C0680931B06B093E8
S1131EF02B05A0932A058CE00E9485018091FE04A5
S1131F00882349F489E090E00AC08FEF8093FE04AF
S1131F10822F992704C01092FF0580E090E0DF91A2
S1131F20CF9108958F929F92AF92BF92CF92DF92FA
S1131F30EF92FF920F931F93CF93DF93CDB7DEB74A
S1131F4026970FB6F894DEBF0FBECDBF4B015C01E0
S1131F50CC24DD24E3E3F6E0608561FF87C12081C2
S1131F60318142815381E480F58006811781D50156
S1131F70C401821B930BA40BB50B8E159F05A00700
S1131F80B10708F473C160FF03C06D7F608708C0A8
S1131F902E0D3F1D401F511F2083318342835383E5
S1131FA082E0C81609F479C08C1528F091E0C916AE
S1131FB009F065C109C0A3E0CA1609F4ABC0B4E0D6
S1131FC0CB1609F05CC1DBC00091CC051091CD05A6
S1131FD080914405813029F481E191E00E94F82345
S1131FE04EC149ED56E00093DF06612F77276093D9
S1131FF0E00686E08093E40680912A0690912B0601
S1132000892B09F03CC150932B0640932A0683E1A7
S11320108093D906809101058823D1F0762F662715
S1132020802F9927682B792B1092010526E086E0F2
S11320300E94280F9927282F882351F081E080934C
S1132040010510922B0610922A06222309F017C1CB
S113205089E291E09F938F930E94E1231F930F9352
S113206086E491E09F938F930E94E1238091E5069B
S113207099279F938F9381E591E09F938F930E947B
S1132080E12381E0809344058DB79EB70A960FB68D
S1132090F8949EBF0FBE8DBFF2C0E0911E05F09173
S11320A01F05309729F44CE251E060E070E02EC047
S11320B0068117819E012F5F3F4FAF0186E0DA0151
S11320C00D90AD01D9010D929D018150C1F780851C
S11320D0918590931F0580931E05CF010E9477235D
S11320E083E991E00E94F823A4EAB5E0FE01319669
S11320F086E001900D928150E1F768E975E0C8012E
S11321000E94690444E853E060E070E082E00E94C9
S11321104504B5C02091F5043091F6042130310511
S113212009F4ADC080914005813049F43F932F9369
S113213089EB91E09F938F930E94E1238BC03F939F
S11321402F9387EF91E09F938F930E94E123109246
S1132150A4058091F5049091F6048093A605892F37
S113216099278093A50568E975E081E090E00E94D5
S1132170690440E45FE160E070E083E070C02091B6
S1132180F5043091F6042130310509F478C08091CA
S1132190CC068130D1F53F932F938FE292E09F9349
S11321A08F930E94E1230F900F900F900F908091D6
S11321B0F5049091F604029709F061C084E08093DD
S11321C0A40582E08093A6051092A5050E94BC0395
S11321D0DC01CB0163E070E00E9432228093A7050A
S11321E00E94BC03DC01CB0164E670E00E94322251
S11321F08093A905892F99278093A80568E975E03C
S113220081E090E00E9469043AC03F932F9384E6F2
S113221092E09F938F930E94E12382E08093A40530
S11322208091F5049091F6048093A605892F99274F
S11322308093A5050E94BC03DC01CB0163E070E040
S11322400E9432228093A70568E975E081E090E05E
S11322500E94690440E45FE160E070E084E00E9471
S113226045040F900F900F900F9009C00894C11C63
S1132270D11C3996B5E0CB16D10409F06DCE8BE0B4
S11322800E94850126960FB6F894DEBF0FBECDBF1F
S1132290DF91CF911F910F91FF90EF90DF90CF903E
S11322A0BF90AF909F908F9008950F931F93CF93FB
S11322B0DF93182FEB01042FE82FFF27EE0FFF1FEA
S11322C0E65DF94F1182108210920105E0912A0611
S11322D0F0912B06309721F08091810780FF0EC08A
S11322E081E08093010503C08EE00E9485011123E3
S11322F0B9F4602FCE010E94010B12C020812D5031
S1132300332767817727762F662786819927682B5D
S1132310792BAF0183850E94280F882341F3E4CFF2
S1132320DF91CF911F910F9108959B018091010539
S1132330882349F460912A0670912B06621773076B
S113234011F40E94551108951F93182F81E090E015
S113235090932705809326051092CF050E94E60CE2
S11323608FB7F8949927109320058FBF82E00E94BD
S113237085011F91089561E081E00E946A0288232B
S1132380E9F48FB7F894282F332780912105909191
S11323902205892B11F02FBF20C081E090E090939B
S11323A02205809321052FBFDD9A0E943F0524E179
S11323B030E040E050E00E94FC050FC062E081E0A4
S11323C00E948402882319F089E090E0089561E076
S11323D081E00E948402882319F080E090E008954F
S11323E085E090E00895CF92DF92EF92FF920F93F1
S11323F01F93CFB6F894DD240E94BC03DC01CB010B
S113240066E470E00E9432225BE0E52EF12CE80ED7
S1132410F91EF0928C07E0928B070E943F0500277B
S11324201127A80197010E94FC05CFBE1F910F91AF
S1132430FF90EF90DF90CF9008951F93CF93DF9399
S11324408FB7F894C82FDD271C2F80912605909113
S113245027050897C9F489E00E943A0C83E00E949A
S11324604A0DC09A81E090E0909327058093260559
S11324708FB7F894992723E0209320058FBF82E03B
S11324800E948501CFBF30C0C09880918F078823F8
S113249011F085E001C084E00E943A0C83FD09C07C
S11324A080E00E943A0C83FF04C085E090E020E0C5
S11324B003C083E090E021E09093270580932605F4
S11324C0C09A1FBF222341F01092430583E00E946B
S11324D04A0D0E94F31108C00E943F0520E431E038
S11324E040E050E00E94FC05DF91CF911F910895D8
S11324F078941F920F920FB60F9211241F932F936B
S11325003F934F935F936F937F938F939F93AF9377
S1132510BF93EF93FF9387B78F7E87BF78941FB7DE
S1132520F8948091030690910406A0910506B09159
S113253006060097A105B10509F051C08091260552
S1132540909127058530910561F18630910530F42D
S11325508330910549F0049781F51AC087309105BD
S1132560F1F0089751F514C0869B0FC084E090E009
S113257090932705809326050E943F0527E030E0CD
S113258040E050E00E94FC0518C00E94F31115C001
S11325900E942B0C882389F40E941D120EC080E037
S11325A00AC089E00E943A0C81E00E94580683E048
S11325B00E944A0D87E00E94A41180912105909108
S11325C02205019771F482E090E0909322058093B4
S11325D02105DE98DE9A80E00E94D30B02C00E949F
S11325E05C05812F99278FBFFF91EF91BF91AF9128
S11325F09F918F917F916F915F914F913F912F9117
S11326001F910F900FBE0F901F901895EF92FF929D
S11326100F931F93CF93DF938B01809113069091B7
S1132620140686FF40C18F7B8F3309F08EC1C091A1
S11326303E05D0913F0558815093E7058091E5050B
S11326409091E6058530910509F443C086309105E3
S113265009F48AC0029709F01FC185E090E09093C5
S1132660E6058093E50540919705852F9927019606
S1132670242F3327281739074CF1B79906C00E9930
S113268004C0451B4150409397054091E7054A32E9
S1132690E8F44423A1F0BE016F5F7F4F483018F087
S11326A047E050E007C086E090E09093E605809311
S11326B0E505552780E090E00E946D0346C1109225
S11326C0F005C09A84E00E944A0DE3C00E94CD0D3B
S11326D03CC186E090E09093E6058093E505809107
S11326E0F805882309F439C080910D078823A9F5DA
S11326F0898185FF32C08F814E812FB7F8943327AB
S113270060910D0670910E062FBF9927982F882788
S11327105527842B952B8617970759F08F812E8187
S11327209927982F88273327822B932B8F5F9F4FCE
S1132730A1F489818770813081F4C09AC0988AE0BD
S11327400E943A0CC09AC0984091E70547502896D9
S1132750BE018FE30E94550CF8C04091E705475035
S113276055272896BE01A6CFC09A8091EC058823F0
S113277039F484E00E944A0D8091EC05882311F01D
S1132780B7990AC00E9B08C090917B07992321F04A
S11327908091E7058B3038F480913E0590913F0598
S11327A00E9430053DC0913001F5E0918007FF277C
S11327B0EE0FFF1FEE0FFF1FE95DF84F20813181FF
S11327C042815381E0913E05F0913F0521ABBB2747
S11327D0A52F942F832F80ABCA01AA27BB2787A7D5
S11327E0252F33274427552726A78091800799272B
S11327F0019668E070E00E944622809380078091F1
S11328007B07815080937B07882351F080913E059C
S113281090913F050E9430051092800710927B072B
S11328208091E705FE01E80FF11D808187FF31C02B
S1132830012B79F169816770E0913E05F0913F05C4
S1132840623019F5A091F905B091FA05109709F1D4
S113285080912605909127050797D9F4ED019B8176
S113286083819817B1F487B78F7E87BF908181E009
S11328708CA7E90FF11D8291319688A780818F770B
S113288089A780E00E94A41104C0613011F489E09A
S11328902AC00E94980D59C01092F005C09A84E095
S11328A00E944A0D52C08E3309F04FC0C09A8091E5
S11328B02605909127050897C9F4C09889E00E94DD
S11328C03A0CC09A83E00E944A0D81E090E0909314
S11328D02705809326058FB7F894992723E0209342
S11328E020058FBF82E00E9485012FC080918F0751
S11328F0882349F484E090E090932705809326058B
S11329000E941D1222C083E00E944A0D83E090E0E1
S113291090932705809326050E94BC03DC01CB011C
S113292066E371E00E9432226BE0E62EF12CE80EA1
S1132930F91EF0925605E09255050E943F050027C6
S11329401127A80197010E94FC05DF91CF911F91E7
S11329500F91FF90EF9008951F920F920FB60F9270
S113296011242F933F934F935F936F937F938F9390
S11329709F93AF93BF93EF93FF932FB1E091C8065A
S1132980F091C906309739F0809128069091290674
S1132990E80FF91F2083809128069091290601965B
S11329A0909329068093280680E00E949B02409120
S11329B0410550914205809128069091290684177B
S11329C0950718F40E94FF021CC06091C80670911C
S11329D0C90680918607909187071092C9061092C4
S11329E0C80610928707109286071092420510922B
S11329F0410510922906109228062FB120E00E946A
S1132A000613FF91EF91BF91AF919F918F917F91A9
S1132A106F915F914F913F912F910F900FBE0F9047
S1132A201F9018959F92AF92BF92CF92DF92EF9230
S1132A30FF920F931F93CF93DF93CDB7DEB7AE977B
S1132A400FB6F894DEBF0FBECDBFE82FFF27E531E8
S1132A50F10510F00C94921CEA5BFF4FEE0FFF1F80
S1132A600590F491E02D099480918107882311F455
S1132A700C94921C90E011E005C60FB7F89411274E
S1132A8081E00E94580641E0E42EF12CF0922705E3
S1132A90E0922605109228051092CF051092EA05BF
S1132AA00FBF0FB7F89411270E942405F092E60592
S1132AB0E092E5051092F00589B78F7B89BF80E429
S1132AC088BF8AB780628ABF8AB78F7E8ABF89B778
S1132AD0806489BF0FBF8FB7F894082F11278091A6
S1132AE0210590912205049719F483E00E943A0C81
S1132AF00FBF0FB7F8941127C09A80E00E944A0DC7
S1132B000FBF8FB7F894992722E02093D5068FBF83
S1132B10109244058091F5049091F604813091055A
S1132B2009F59F938F938FE992E09F938F930E946F
S1132B30E12380E090E00F900F900F900F902FEF23
S1132B40EBE5F5E0208311821282019633968431FD
S1132B509105C1F74CE251E060E070E082E00E9430
S1132B604504E0C69F938F938EEC92E09F938F93DE
S1132B700E94E123109240051092CC0640E45FE1EC
S1132B8060E070E083E00E9445040F900F900F9086
S1132B900F90C8C68FB7F89499271092D506A0C68F
S1132BA08FB7F8949927F09020058FBF63E081E0F8
S1132BB00E948402882359F10FB7F89411271092C8
S1132BC027051092260587B78F7E87BF87B78F7D2D
S1132BD087BF83E00E944A0DC09A0FBF0FB7F894D5
S1132BE011271092E6051092E5050E942405C09A6B
S1132BF089B78F7B89BF0FBF1092220510922105E0
S1132C00DE98DD98DE9A81E00E94850107C08FB7C7
S1132C10F894992722E02093D5068FBF00911D06D2
S1132C2010911E060E948E03809182079091830763
S1132C30892B09F077C68FEF8093FE044F2DB801DE
S1132C4018C58FB7F894282F3327122F80918D073A
S1132C50882301F581E080938D078091210590916F
S1132C602205049721F481E00E94D30B03C084E081
S1132C700E9485011FBF56C68FB7F89499271092FA
S1132C808D072EC68FB7F894282F332780912305FC
S1132C90882311F02FBF46C62FBF80B3992736E093
S1132CA0969587953A95E1F7182F117090910F0634
S1132CB0809110068917D9F01917C9F484E090E0BF
S1132CC090932205809321058FB7F894992721E0EA
S1132CD0209323058FBF60E070E08DE10E94DE0D3C
S1132CE00E940E0BC09AC09880E00E948501109348
S1132CF0100685E0E8C58FB7F89499271091F7047A
S1132D008FBF123009F465C0133030F4112359F029
S1132D10113009F007C648C0133009F474C01430E8
S1132D2009F000C6A0C0C0988FB7F894082F1127E7
S1132D308091210590912205029709F097C583E0BF
S1132D4090E0909322058093210568E170E08DE185
S1132D500E94DE0D81E080930F061092230580B35C
S1132D60992726E0969587952A95E1F781709070CA
S1132D708093100685E00E94850181E00E943A0C50
S1132D806FE772E08CE10E94DE0D0E943F0E0E940C
S1132D90050E66E57AE287E10E94DE0D6FEF70E8CA
S1132DA085E10E94DE0D62C5C09886E00E943A0C5F
S1132DB00E943F0E0E94050E0E940E0BC09AC098FE
S1132DC083E00E943A0CC09A81E00E944A0D84E09C
S1132DD07AC5C0988FB7F894082F112760E080E077
S1132DE00E948402882311F00FBF0AC00FBF83E53D
S1132DF00E94F30280E00E94F30280E00E94F3024A
S1132E00C09A82E02DC08FB7F894992720912605A7
S1132E108FBF243039F0283041F0223001F50E9470
S1132E20500E80C50E941D127DC5C09889E00E9485
S1132E303A0CC09A83E00E944A0D8FB7F894992700
S1132E4021E030E030932705209326058FBF8FB70C
S1132E50F8949927109320058FBF82E034C583E04E
S1132E600E944A0D5FC50E94870C5CC50FB7F89499
S1132E70112740914105509142056091C806709117
S1132E80C90680918607909187071092C90610920F
S1132E90C806109287071092860710924205109276
S1132EA04105109229061092280620E00E9406137C
S1132EB0DDC42FB7F89433278091ED058093FA048D
S1132EC082E0809325052FBF8091FA04882309F0BE
S1132ED029C5B89AC09886E0F6C4A0913E05B09181
S1132EE03F05DC909D012D0D311DF9018081881F66
S1132EF08827881FFD0183A7F90180818F77FD0151
S1132F0081A721503040F9018081FD0180A7A09163
S1132F103E05B0913F05FD0132818FB7F8949927A2
S1132F202091EB058FBF222309F490C0832F9927AA
S1132F3096958795969587958370907082309105C4
S1132F4041F5878146812FB7F894332760910D06A8
S1132F5070910E062FBF9927982F88275527842B09
S1132F60952B8617970719F481E090E06CC0FD015A
S1132F708781268140E050E09927982F88273327BE
S1132F80822B932B8F5F9F4F11F441E050E0CA01D5
S1132F905AC0039709F0B9C29E01295F3F4F4EE022
S1132FA057E088E0FA010190AF01F90101929F0115
S1132FB08150C1F79E01295D3F4FAE01495F5F4FCC
S1132FC088E0FA010190AF01F90101929F0181505B
S1132FD0C1F79E01215F3F4FAE01495D5F4F88E01D
S1132FE0FA010190AF01F90101929F018150C1F7EB
S1132FF09E01295E3F4FAE01415F5F4F88E0FA01B9
S11330000190AF01F90101929F018150C1F79E0126
S1133010215E3F4FAE01495E5F4F88E0FA010190A7
S1133020AF01F90101929F018150C1F748E050E0DE
S1133030BE01615E7F4FCD0106960E94CD23892B90
S113304009F063C203C0882309F45FC2FCE0FD15E4
S113305008F05BC2E0903E05F0903F05F701228145
S1133060822F992736E0969587953A95E1F703974D
S113307019F468E070E002C062E070E0822F9927E2
S1133080969587959695879583709070039719F414
S113309088E090E002C082E090E026E030E0E20EBA
S11330A0F31E40E050E020E030E0F701E80FF91FA4
S11330B08AEF9FEFE80EF91E05C08191480F511D5C
S11330C02F5F3F4F26173707C4F3F70163818FEF54
S11330D0809384078FB7F894782F20E030E0E9E4F8
S11330E0F5E0808191818417950731F482818617F8
S11330F009F4E9C1209384072F5F3F4F33962430AE
S1133100310579F77FBF909184073FB7F8949F3FCB
S113311021F080912905891799F420912905822F9E
S11331209927FC01EE0FFF1FE80FF91FE75BFA4F29
S11331305183408362832F5F2370209329050CC041
S1133140892F9927FC01EE0FFF1FE80FF91FE75B9A
S1133150FA4F518340836283832F99278FBF0FB720
S1133160F8941127C7010E942602FC0190810FBF29
S1133170F70183A5882309F4C4C19F3309F0C1C1B1
S1133180878146812FB7F89433276091FB047091AF
S1133190FC042FBF9927982F88275527842B952B1C
S11331A08617970761F0878126819927982F8827AA
S11331B03327822B932B8F5F9F4F09F0A2C1F70116
S11331C08385863009F09DC1F3E1DF1609F099C1CA
S11331D08701045F1F4FF70184859927823009F422
S11331E067C0833030F4882359F0813009F089C1F5
S11331F050C0833009F4DDC0843009F082C1E8C0D6
S11332008091F5049091F604019709F07AC1F701D1
S1133210858526859927982F88273327822B932BFA
S11332209F938F9385EF92E09F938F930E94E12366
S1133230F701858526859927982F88273327822BA0
S1133240932BFC01EE0FFF1FE80FF91FE65AFA4F0C
S113325081E080838093A405F70105858685112785
S1133260102F00279927082B192B21E03091A50551
S11332704091A6055091A7056091A8057091A905F4
S11332808EE195E00E94460B0F900F900F900F90E7
S113329038C18091F5049091F604019709F431C185
S11332A089E393E00E94F82381E08093400529C1DB
S11332B08091F5049091F604019709F022C1F70179
S11332C025854685878599279F938F933327322FAA
S11332D022275527242B352B3F932F9386E693E003
S11332E09F938F930E94E123F70185852685992773
S11332F0982F88273327822B932BFC01EE0FFF1F77
S1133300E80FF91FE65AFA4F80812DB73EB72A5FBE
S11333103F4F0FB6F8943EBF0FBE2DBF882329F44C
S113332081EA93E00E94F823ECC089ED93E00E94C7
S1133330F823F701858526859927982F8827332731
S1133340822B932BFC01EE0FFF1FE80FF91FE75AA6
S1133350FA4F81E08083F701478585852685992783
S1133360982F88273327822B932BFC01EE0FFF1F06
S1133370E80FF91FE85AFA4F408383E08093A405CD
S1133380F701058586851127102F00279927082B1B
S1133390192B23E03091A5054091A6055091A7056E
S11333A06091A8057091A9058EE195E00E94460BF5
S11333B0A8C08091F5049091F604019709F4A1C086
S11333C088E094E00E94F82381E08093CC0699C0C1
S11333D08091F5049091F604F7017785508921894D
S11333E0019709F072C045856685852F9927982F26
S11333F088273327822B932B9F938F93872F99278B
S11334009F938F935527542F44277727462B572B69
S11334105F934F9387E394E09F938F930E94E123FC
S1133420F701878599279F938F938DE794E09F9366
S11334308F930E94E123DE011196F80186E001904A
S11334400D928150E1F79C805BE5A52E55E0B52EE9
S113345041E0C42ED12C2DB73EB7245F3F4F0FB6A9
S1133460F8943EBF0FBE2DBFF50181818130F9F480
S1133470808199278915D9F48C83A4EAB5E0FE01EB
S1133480319686E001900D928150E1F786012091FA
S1133490A4053091A5054091A6055091A70560911A
S11334A0A8057091A9058EE195E00E94460B23E0E2
S11334B030E0A20EB31E0894C11CD11C35E1C31622
S11334C0D104F9F0D1CF7FBF1CC0852F9927982F45
S11334D088273327822B932B9F938F93872F9927AA
S11334E09F938F9382EB94E09F938F930E94E123A9
S11334F04DB75EB74A5F5F4F0FB6F8945EBF0FBE1D
S11335004DBFF0923F05E0923E058FB7F89499279E
S11335101092F0058FBF0E94980D04C28091E905B6
S1133520882361F5209123073091240740912507D2
S113353050912607EFB7F894FF276091D006709159
S1133540D1068091D2069091D306E0905705F09071
S113355058050091590510915A056E0D7F1D801F65
S1133560911FEFBF2093230730932407409325072F
S1133570509326071092E9050E940A050E949503BC
S113358043C00E9495035B016C018FB7F89499279F
S113359010921F068FBF8FEFE82E8FEFF82E8FEF5C
S11335A0082F8FE7182F60E0E3E3F6E0808581FFC2
S11335B01CC080819181A281B381A6019501281B41
S11335C0390B4A0B5B0BDA01C90124813581468131
S11335D05781281B390B4A0B5B0B2E153F054007FF
S11335E051071CF479018A0161E0399636E0E0362E
S11335F0F307E1F6662309F495C11E141F041006AF
S113360011062CF0C601B5010E94920F8BC1E09205
S11336102307F0922407009325071093260781E0DF
S11336208093E905A8019701C601B5010E940A0526
S113363079C19091FF058091FE04981709F472C135
S11336409093FE049923D1F400912A0510912B053F
S113365060911B06C8010E94960E482F55274423EB
S113366009F460C18FEF8093FE0460912A05709184
S11336702B05F80183850E94951154C18FEF809327
S1133680FE0450C120918107812F8223C1F0E92FCC
S1133690FF27EE0FFF1FE65DF94F40815181118234
S11336A01082812F8095282320938107992339F450
S11336B063E0CA010E94010B110F91E0E3CF9F5F09
S11336C0983008F02FC1110FDDCF80910105E82F4C
S11336D0FF27EE0FFF1FE65DF94F6081718141E026
S11336E00E9455111FC18FB7F89410928A07209138
S11336F0CB0640E0283009F441E030E0293009F4F9
S113370031E0442311F4332351F01092CB06E091BD
S11337103206FF27EE0FFF1FE95EF94F108299274B
S11337208FBF442311F4332331F19FB7F894809170
S11337307F078F5F80937F0780910806833479F435
S11337402091210680912006821779F0822F8F5FC5
S113375080932106863048F01092210606C0A0E02E
S1133760442309F4A1E071E002C0A0E070E0892FD5
S113377099278FBF06C0222311F0FF246DC0A0E05B
S113378070E08FB7F894992720912C058FBF2223DE
S113379041F08FB7F89499272AE02093CB068FBF86
S11337A042C08FB7F8949927609117064091190683
S11337B08FBF8FB7F894282F332750E090912006BD
S11337C080912106981709F451E02FBF552341F544
S11337D0662331F55FB7F89482E0809317068FB7BC
S11337E0F894282F332740E09091200680912106F9
S11337F0981709F441E02FBF442311F080E006C07C
S1133800E0912106FF27E05EF94F8281809318063C
S113381083E48093080610923206852F99270EC000
S11338204150423010F0FF240CC08FB7F894992710
S113383025E42093080621E0209332068FBFE1E0BF
S1133840FE2E772349F08FB7F8949927A093350576
S11338508FBF83E10E9485018FB7F894082F112749
S11338608091CB068A3021F40E94B8010FBF5AC060
S11338700FBFFF2009F456C02FB7F89433271092D6
S11338809107109290071092020681E08093CB0674
S11338902FBF0E94FE01882309F444C08FB7F89417
S11338A0992729E02093CB068FBF0E9412023AC0C9
S11338B00E94AC018FB7F89499271092CB0610920E
S11338C0F1050EC082E10E9485012CC053985498E2
S11338D029C010923205109231058FB7F8949927B8
S11338E020C08FB7F894992720913A0530913B0571
S11338F04091CE058FBF8FB7F894E42FFF27EE0FCA
S1133900FF1FED5FFA4F3183208320912D0544235F
S113391011F02B7F01C02D7F20932D0510923805C7
S113392099278FBFAE960FB6F894DEBF0FBECDBFFA
S1133930DF91CF911F910F91FF90EF90DF90CF9087
S1133940BF90AF909F90089580917C078F3FB1F016
S1133950282F3327F901E053FA4F808180937C07A5
S11339608F3F11F480938E078FEF80832F3F31F0C8
S1133970822F0E94121581E090E0089580E090E08B
S11339800895FF920F931F93CF93DF93CDB7DEB7C4
S1133990E0970FB6F894DEBF0FBECDBFFFB6F89424
S11339A045E150E06FEF70E080ED95E00E94DA238E
S11339B08FEF80937C0780938E0781E08EBD88E033
S11339C080BF83E083BF8CB59DB54AE72CB53DB578
S11339D02817390708F44150442311F0C901F6CFE0
S11339E092B782B78917E9F32CB53DB592B782B780
S11339F08917E9F38CB59DB5821B930B4096F5E0CE
S1133A0096958795FA95E1F790937E0780937D07C5
S1133A1013BE83B78EBD8EB580BF12BE1DBC1CBC49
S1133A208FEF86BF86B780937C0080B79927877015
S1133A309070892BD1F7D29AD19AD09ADA9AD99ADE
S1133A40D89A15BA8FEF84BBD498DC981092890069
S1133A501092880080917D00846080937D00809125
S1133A608A00887F826080938A001DBC1CBC87B753
S1133A70846087BF8EB5887F84608EBD0E94A41C3D
S1133A808823E1F710921706109219068AE08093B2
S1133A90CB06109202061092080610927F0710922D
S1133AA091071092900710928A0710923206109292
S1133AB01A071092190784E08093F1051092CE063C
S1133AC0109222071092F50510922F0610922E06DE
S1133AD0109221061092200689E095E090939B07AE
S1133AE080939A0712E006E060917D0770917E074B
S1133AF088279927ECE0660F771F881F991FEA959E
S1133B00D1F720E031EE40E050E00E9459222150EC
S1133B10304029B9832F9927809390001BB90093D3
S1133B2095001AB8209399008093980010939B00F5
S1133B3000939D0010929A0084E490E090931F07F4
S1133B4080931E070E94AC01882309F05AC18FEFAD
S1133B508093EE0520E030E0E9E4F5E08FEF9FEF9D
S1133B60918380831282339645E0E535F407C1F7EB
S1133B700E94BC03609318078091F5049091F604A9
S1133B800196AA27BB278093FB059093FC05A0937D
S1133B90FD05B093FE0580B7886080BF8BE083BFCE
S1133BA086EE81BF87B7826087BF0E94870487E45F
S1133BB097E090933F0580933E058E98B89A8C9831
S1133BC08FEF809307061092D4061092D5061092B8
S1133BD0D6061092D706B89AD69AD59A8FB7F89483
S1133BE099272091FB043091FC048FBF30930E067B
S1133BF020930D060E946B0629A73AA74BA75CA742
S1133C006DA77EA78FA798ABDE019196FE01B996AA
S1133C1088E001900D928150E1F7DE015196FE019A
S1133C20B19688E001900D928150E1F7DE0159963A
S1133C30FE01719688E001900D928150E1F7AEE0AB
S1133C40B7E0FE01799688E001900D928150E1F78A
S1133C508091FD0499279093F7058093F6058FE1F1
S1133C608093CF068AE1809316070E946B0629A7EA
S1133C703AA74BA75CA76DA77EA78FA798ABDE01D9
S1133C809196FE01B99688E001900D928150E1F77A
S1133C90DE011196FE01B19688E001900D928150EB
S1133CA0E1F7DE011996FE01319688E001900D924C
S1133CB08150E1F7AEE0B7E0FE01399688E001906B
S1133CC00D928150E1F7AEE0B7E0FD0137969C918B
S1133CD080818D939083319787E0E131F807B9F7BC
S1133CE081E08093EB05109285078093F80510928C
S1133CF00D070E94A41C8823E1F78F2D99278FBFFD
S1133D0078948FB7F894282F3327922F8091CB067D
S1133D108A3031F08091F105843011F02FBF04C056
S1133D209FBF80E10E9485010E94BB118FB7F89468
S1133D30482F55274BC087B7992783709070892BDC
S1133D4019F4E5E0F0E013C080B79927877090700C
S1133D50892BD1F781B792B7891B8C3030F082B7A9
S1133D60853F18F4E3E0F0E002C0E2E0F0E087B75A
S1133D70887BC1F480917D008B7FA1F46E9912C081
S1133D808AB190919A00892B887161F480917400B2
S1133D9082FD08C0379B03C081E090E005C085E048
S1133DA090E002C080E090E025B78E1708F4E82F79
S1133DB0FF27EA54FD4FE491237E2062E22BE5BF06
S1133DC078948895F89485B78F7D85BF80917C071A
S1133DD08F3F09F4B0CF282F3327F901E053FA4F6E
S1133DE0808180937C078F3F11F480938E078FEF3F
S1133DF080832F3F09F49FCF4FBF822F0E9412155B
S1133E0095CF8FEF8093EE0521E030E0A5CE789436
S1133E101F920F920FB60F9211242F923F924F923E
S1133E205F926F927F928F929F92AF92BF92CF9246
S1133E30DF92EF92FF920F931F932F933F934F9331
S1133E405F936F937F938F939F93AF93BF93CF931E
S1133E50DF93EF93FF93C6B5D7B58FB7F894282EA9
S1133E600E943F059B012C1B3D0B442755272B012A
S1133E703C01421A530A640A750A809126059091FE
S1133E8027058530910521F0069709F0E0C0BFC0F1
S1133E9086E090E0909327058093260531E0332E49
S1133EA03092EF051092280580E00E945806E091B8
S1133EB0F905F091FA0541AABB27A72D962D852D6A
S1133EC080ABC301AA27BB2787A7872D9927AA27D9
S1133ED0BB2786A7E091F905F091FA0585A588230B
S1133EE009F484C06081655077274F01860E971EC0
S1133EF0F4012081E1808281A3809927AA27BB272E
S1133F00BA2FA92F982F8827332744275527522FB4
S1133F10442733272227FF24002711278701FF2462
S1133F20EE242E293F29402B512BBB24CC24DD2405
S1133F302A293B294C295D29822B932BA42BB52BB1
S1133F4084199509A609B7098383292F3A2F4B2F82
S1133F50552722839D014427552721838B2F992799
S1133F60AA27BB278083C09824E0A40180E090E0C6
S1133F700E941706C09AF4012081E1808281A38007
S1133F809927AA27BB27BA2FA92F982F8827332729
S1133F9044275527522F442733272227FF2400275D
S1133FA011278701FF24EE242E293F29402B512B72
S1133FB0BB24CC24DD242A293B294C295D29822BCE
S1133FC0932BA42BB52B840D951DA61DB71D8383A0
S1133FD0292F3A2F4B2F552722839D0144275527FC
S1133FE021838B2F9927AA27BB278083E091F9058A
S1133FF0F091FA05818185FF02C03092CF0583E0FC
S11340000E944A0D87B78F7E87BF84997AC0109229
S1134010EF0581E00E945806E091F905F091FA0558
S1134020818185FF0FC087E090E0909327058093FE
S113403026050E943F0520E031E040E050E00E9468
S1134040FC0503C080E00E94A411849B5AC08091A7
S11340502805882391F58091EF05882371F511E0F7
S11340601093EF050E94580680B320917B072830F7
S113407098F4E0918007E20FFF27E770F070EE0FED
S1134080FF1FEE0FFF1FE95DF84F408251826282ED
S113409073822F5F20937B0710932805D093160615
S11340A0C093150684992DC09927A4E09695879509
S11340B0AA95E1F7182F117001C010E08091EF0567
S11340C08130F9F41092EF050E94580610922805E9
S11340D01123B9F48091150690911606C81BD90BCB
S11340E02A9778F480917B07882319F08150809374
S11340F07B078091F9059091FA05009711F00E94D1
S113410030052FBEFF91EF91DF91CF91BF91AF9119
S11341109F918F917F916F915F914F913F912F91DB
S11341201F910F91FF90EF90DF90CF90BF90AF90D1
S11341309F908F907F906F905F904F903F902F90C3
S11341400F900FBE0F901F901895ACE2B0E0EBEA11
S1134150F0E20C949A22222E332E442E552E662EF3
S1134160772E882E992EFE013196A8E01192AA95F9
S1134170E9F729823A824B825C826D827E828F8249
S11341809886FE013996B8E01192BA95E9F7A986A6
S1134190BA86CB86DC86ED86FE860F87188B8981EE
S11341A09A81AB81BC8189A79AA7ABA7BCA77C01E4
S11341B08D018FEF9FEFA0E0B0E0E822F9220A23FF
S11341C01B2389A59AA5ABA5BCA51D014424552490
S11341D089859A85AB85BC858DA39EA3AFA3B8A71B
S11341E05C016D018FEF9FEFA0E0B0E0A822B9223F
S11341F0CA22DB228DA19EA1AFA1B8A53D018824CE
S11342009924C801B701A60195010E947B2269A3E4
S11342107AA38BA39CA3C801B701A40193010E94B4
S11342207B227B018C01C201B101A60195010E9490
S11342307B225B016C01C201B101A40193010E94C4
S11342407B223B014C01EA0CFB1C0C1D1D1D89A1AA
S11342509AA1ABA1BCA19D01442755272E0D3F1D5A
S1134260401F511F2A153B054C055D0540F480E0B5
S113427090E0A1E0B0E0680E791E8A1E9B1ECA0180
S1134280AA27BB27860D971DA81DB91D8D8F9E8F4C
S1134290AF8FB8A3A9013327222789A19AA1ABA183
S11342A0BCA1A070B070280F391F4A1F5B1F298F53
S11342B03A8F4B8F5C8FA98CBA8CCB8CDC8CED8CB9
S11342C0FE8C0F8D18A1FE01719698E011929A95BB
S11342D0E9F7ED8AFE8A0F8B188F2D813E814F817D
S11342E058856DA17EA18FA198A50E947B223B01D8
S11342F04C012D853E854F85588969A57AA58BA5E6
S11343009CA50E947B222D893E894F89588D260FBA
S1134310371F481F591F260D371D481D591D2D8B4A
S11343203E8B4F8B588F6D887E888F88988C2A2D72
S11343303B2D4C2D5D2D662D772D882D992DE2E199
S1134340AC960C94B622A0E1B0E0E9EAF1E20C9458
S11343509A22222E332E442E552E662E772E882E08
S1134360992E002309F466C088E0FE01319611926B
S11343708A95E9F729833A834B835C836D837E8333
S11343808F829887E0E2E01B1E16CCF52D813E81DA
S11343904F815885602F772767FD7095DA01C90131
S11343A0062E04C0B695A795979587950A94D2F7DB
S11343B08D879E87AF87B88B04C0220F331F441F9D
S11343C0551FEA95D2F789819A81AB81BC8104C0DB
S11343D0B695A795979587956A95D2F7282B392B8B
S11343E04A2B5B2B29873A874B875C8729843A843D
S11343F04B845C846D847E848F8498881BC01D8666
S11344001E861F86188A2E2F332727FD3095309558
S113441021953F4F8D819E81AF81B88504C0B695AB
S1134420A795979587952A95D2F789879A87AB8719
S1134430BC87DCCF222D332D442D552D662D772DB1
S1134440882D992DE2E160960C94B622991B79E0AF
S113445004C0991F961708F0961B881F7A95C9F710
S113446080950895AA1BBB1B51E107C0AA1FBB1F5F
S1134470A617B70710F0A61BB70B881F991F5A95EC
S1134480A9F780959095BC01CD01089597FB092E5D
S113449007260AD077FD04D0E5DF06D000201AF401
S11344A0709561957F4F0895F6F7909581959F4F8C
S11344B00895A1E21A2EAA1BBB1BFD010DC0AA1F61
S11344C0BB1FEE1FFF1FA217B307E407F50720F079
S11344D0A21BB30BE40BF50B661F771F881F991FF4
S11344E01A9469F760957095809590959B01AC013D
S11344F0BD01CF010895629FD001739FF001829F97
S1134500E00DF11D649FE00DF11D929FF00D839F5E
S1134510F00D749FF00D659FF00D9927729FB00DFB
S1134520E11DF91F639FB00DE11DF91FBD01CF010E
S1134530112408952F923F924F925F926F927F922F
S11345408F929F92AF92BF92CF92DF92EF92FF929F
S11345500F931F93CF93DF93CDB7DEB7CA1BDB0B4B
S11345600FB6F894DEBF0FBECDBF09942A883988F0
S113457048885F846E847D848C849B84AA84B984F7
S1134580C884DF80EE80FD800C811B81AA81B98103
S1134590CE0FD11D0FB6F894DEBF0FBECDBFED0117
S11345A00895CF93DF93AC01029710F442E050E0FA
S11345B0A0919607B0919707FD01C0E0D0E020E0FC
S11345C030E020C0808191818417950769F482814D
S11345D09381209719F09B838A8304C09093970753
S11345E080939607CF0132C04817590738F4211534
S11345F0310519F08217930708F49C01EF0102803A
S1134600F381E02D3097F1F62115310589F1C901C7
S1134610841B950B049708F4A901E0E0F0E026C0A0
S11346208D919C91119782179307E9F448175907C4
S113463079F4ED018A819B81309719F09383828309
S113464004C09093970780939607CD0102964CC0BF
S1134650841B950BFD01E80FF91F419351930297B9
S11346608D939C933DC0FD01A281B3811097C1F647
S11346708091940790919507892B41F480911905B5
S113468090911A05909395078093940720911B05A8
S113469030911C052115310541F42DB73EB78091A9
S11346A0170590911805281B390BE0919407F09198
S11346B09507E217F307B0F42E1B3F0B24173507B9
S11346C088F0CA0102962817390760F0CF01840FD9
S11346D0951F029690939507809394074193519365
S11346E0CF0102C080E090E0DF91CF910895CF9395
S11346F0DF93009709F44EC0EC0122971B821A82C3
S1134700A0919607B0919707109711F140E050E0FF
S113471001C0DC01AC17BD0700F1BB83AA83FE0115
S113472021913191E20FF31FEA17FB0771F42E5F19
S11347303F4F8D919C911197820F931F998388838A
S1134740FD01828193819B838A834115510559F42C
S1134750D0939707C09396071DC0FD018281938172
S1134760AD010097B1F6FA01D383C283219131914F
S1134770E20FF31FEC17FD0769F42E5F3F4F8881AA
S11347809981820F931FFA01918380838A819B818F
S113479093838283DF91CF910895FB01DC0104C0F0
S11347A08D910190801921F441505040C8F7881B25
S11347B0990B0895DC0101C06D9341505040E0F71E
S11347C00895A2E0B0E0E7EEF3E20C94AA22FE0121
S11347D0379661917191FA83E983AF0180919A07C9
S11347E090919B070E942B24E2E022960C94C6220F
S11347F00F931F93CF93DF938C01E0919A07F0916D
S11348009B07838181FF1FC0C0E0D0E00AC0FD0187
S113481020853185BD01F9010995892B11F0CFEF70
S1134820DFEFF80181918F01A0919A07B0919B0766
S1134830882369F7FD0120853185BD018AE0F901EE
S11348400995892B11F0CFEFDFEFCE01DF91CF91E6
S11348501F910F910895ABE0B0E0E1E3F4E20C9412
S11348609C223C014B016A01FC0117821682838160
S113487081FD03C08FEF9FEFDAC1F3013381F401AF
S113488033FD859133FF81914F01882309F4CCC115
S1134890853239F433FD859133FF81914F0185329F
S11348A029F4B30199270E943126E7CF00E044247C
S11348B055244AE00032B0F48B3269F08C3228F48B
S11348C0803251F0833271F40BC08D3239F0803371
S11348D049F4016028C00260046025C0086023C058
S11348E0006121C007FD29C0282F20532A3078F405
S11348F006FF06C0549EC0011124522E580E13C048
S1134900449EC0011124422E480E00620CC08E3217
S113491021F406FD89C1006406C08C3611F40068D8
S113492002C0883651F4F40133FD859133FF81913F
S11349304F01882309F46FC0BDCF982F855483306D
S113494018F08052833038F424E030E0C20ED31ED5
S11349508FE389830FC0933631F0933799F0933501
S113496009F05BC023C0F6018081898322E030E036
S1134970C20ED31E7E010894E11CF11C51E0A52E49
S1134980B12C12C0F601E080F18006FD03C06FEF88
S11349907FEF02C0652D772722E030E0C20ED31EE0
S11349A0C7010E9426265C010F7713C0F601E08040
S11349B0F18006FD03C06FEF7FEF02C0652D7727FE
S11349C022E030E0C20ED31EC7010E941B265C0108
S11349D0006803FF07C01BC0B30180E290E00E949F
S11349E031264A94842D9927A816B906A8F30FC036
S11349F0F70107FD859107FF81917F01B301992795
S1134A000E94312641104A940894A108B108A114C7
S1134A10B10471F706C190E03EC0943611F09936A6
S1134A2091F507FF0AC0F60160817181828193814B
S1134A3024E030E0C20ED31E0DC0F60180819181C6
S1134A409C01B901882777FD8095982F42E050E0BA
S1134A50C40ED51E4FE6B42EB02297FF09C0909520
S1134A608095709561957F4F8F4F9F4F50E8B52A81
S1134A708E010F5F1F4F2AE030E0A8010E945E26DE
S1134A80A82EA01A4DC0953731F43FEEF32EF02234
S1134A902AE030E023C029EFF22EF0229F3661F0A5
S1134AA0903720F4983509F0BFC012C0903739F020
S1134AB0983709F0B9C005C028E030E00FC080E1A4
S1134AC0F82AF4FE02C094E0F92A20E130E006C09E
S1134AD0F4FE02C0E6E0FE2A20E132E0F7FE0AC05E
S1134AE0F601608171818281938144E050E0C40EBB
S1134AF0D51E0BC0F60180819181AC01BA018827D3
S1134B009927E2E0F0E0CE0EDF1E8E010F5F1F4F0B
S1134B10A8010E945E26A82EA01A8FE7B82EBF20F7
S1134B20B6FE10C0FEEFBF22A51460F42B2D332770
S1134B3024FF1AC022FF02C0052D09C02FEEB222A5
S1134B40052D01C00A2D2B2D332724FF0EC0FE0195
S1134B50EA0DF11D8081803319F439EEB32209C0C6
S1134B600F5F22FF06C004C0052D822F867809F04E
S1134B700F5FEB2CFF24E3FC14C0E0FE0FC0041510
S1134B8010F05A2C0BC0542C501A5A0C042D06C089
S1134B90B30180E290E00E9431260F5F0415C0F358
S1134BA004C0041510F4401A01C04424E4FE10C0EB
S1134BB0B30180E390E00E943126E2FE1EC0E1FED4
S1134BC003C088E590E002C088E790E0B3010CC020
S1134BD08E2D867891F0E1FE02C08BE201C080E266
S1134BE0B7FC8DE2B30199270E94312606C0B301B8
S1134BF080E390E00E9431265A94A514C0F3AA944D
S1134C00FE01EA0DF11D8181B30199270E9431262D
S1134C10AA2039F0F4CFB30180E290E00E9431265B
S1134C204A944420C1F729CEF30186819781E0E1BB
S1134C302B960C94B822FC01059061507040011031
S1134C40D8F7809590958E0F9F1F0895FC016150B1
S1134C50704001900110D8F7809590958E0F9F1F9A
S1134C6008950F931F93CF93DF938C01EB018B81F6
S1134C70992781FF1BC082FF0DC02E813F818C814B
S1134C809D812817390764F4E881F9810193F98338
S1134C90E88306C0E885F985802F0995892B31F4CE
S1134CA08E819F8101969F838E8302C00FEF1FEF39
S1134CB0C801DF91CF911F910F910895FA01AA279E
S1134CC0283051F1203181F1E8946F936E7F6E5F4B
S1134CD07F4F8F4F9F4FAF4FB1E03ED0B4E03CD0F9
S1134CE0670F781F891F9A1FA11D680F791F8A1FDC
S1134CF0911DA11D6A0F711D811D911DA11D20D043
S1134D0009F468943F912AE0269F11243019305DFC
S1134D103193DEF6CF010895462F4770405D4193ED
S1134D20B3E00FD0C9F7F6CF462F4F70405D4A333A
S1134D3018F0495D31FD4052419302D0A9F7EACF02
S1134D40B4E0A6959795879577956795BA95C9F731
S1134D5000976105710508959B01AC010A2E069424
S1134D605795479537952795BA95C9F7620F731FDD
S10D4D70841F951FA01D0895FFCFB6
S1134D7A53656E6420646F6E65206572726F72216A
S1134D8A0053656E64696E67204D65737361676568
S1134D9A3A204C6F636B6564005061636B657420E1
S1134DAA70617373656420746F206C6F7765722009
S1134DBA6C6179657200202D446573743A20256408
S1134DCA00202D547970653A202564202830203D2E
S1134DDA20434F4E4E2C2031203D20434F4E4E410E
S1134DEA434B2C2032203D205355422C2033203D66
S1134DFA2053554241434B2C2034203D20505542E8
S1134E0A290A0050414E20436F6F7264696E6174BF
S1134E1A6F72206861732061206D657373616765C1
S1134E2A20746F2073656E64004E6F646520256478
S1134E3A20697320616C726561647920636F6E6E98
S1134E4A65637465642C2073656E64696E6720619A
S1134E5A20737562736372697074696F6E20726508
S1134E6A71756573740A004E6F6465202564206940
S1134E7A73206E6F7420636F6E6E65637465642C41
S1134E8A2073656E64696E67206120636F6E6E6558
S1134E9A6374696F6E20726571756573740A004E66
S1134EAA6F646520256420697320616C726561648E
S1134EBA7920737562736372696265642C20776101
S1134ECA6974696E6720666F72206D6573736167B2
S1134EDA65730A004E6F6465202564206973206E29
S1134EEA6F7420737562736372696265642C2073CC
S1134EFA656E64696E672061207375627363726993
S1134F0A7074696F6E20726571756573740A0050E6
S1134F1A414E20436F6F7264696E61746F722041EF
S1134F2A63746976654D657373616765436F6E74FF
S1134F3A726F6C2053746172746564210A004E6F37
S1134F4A6465202564204163746976654D657373CD
S1134F5A616765436F6E74726F6C20537461727407
S1134F6A6564210A00526563656976656420636F26
S1134F7A6E6E656374696F6E20726571756573749C
S1134F8A2066726F6D20636C69656E742025642CCB
S1134F9A2073656E64696E6720636F6E6E656374F1
S1134FAA696F6E2061636B0A005265636569766591
S1134FBA6420636F6E6E656374696F6E2061636BE0
S1134FCA2066726F6D2050414E20436F6F72646980
S1134FDA6E61746F720052656365697665642073E5
S1134FEA7562736372697074696F6E207265717524
S1134FFA6573742066726F6D20636C69656E7420C4
S113500A25642C206F6E20746F7069632025640AEE
S113501A0020436C69656E74206973206E6F742076
S113502A636F6E6E65637465642C2069676E6F7254
S113503A696E6720737562736372697074696F6EDF
S113504A20726571756573740020436C69656E74AA
S113505A20697320636F6E6E65637465642C2073B4
S113506A656E64696E6720737562736372697074BE
S113507A696F6E2061636B00526563656976656466
S113508A20737562736372697074696F6E206163E9
S113509A6B2066726F6D2050414E20436F6F7264AD
S11350AA696E61746F72005265636569766564201E
S11350BA7075626C697368207265717565737420A2
S11350CA66726F6D20636C69656E742025642C208A
S11350DA6F6E20746F706963202564207769746821
S11350EA207061796C6F61642025640A0020416430
S11350FA64696E67206D6573736167657320666F93
S113510A7220636C69656E7473207375627363725B
S113511A6962656420746F20746F70696320256402
S113512A0A005265636569766564207075626C6904
S113513A73682066726F6D2050414E20436F6F7200
S113514A64696E61746F72206F6E20746F70696324
S113515A2025642077697468207061796C6F6164B2
S113516A2025640A000100FFFFFFFF010022FFFF60
S113517AFF01FF60069406600600000002000000BA
S111518A00EA0A0000000020009E070000005A
S9030000FC
